{
  "contractName": "TasksContract",
  "abi": [
    {
      "inputs": [],
      "stateMutability": "nonpayable",
      "type": "constructor"
    },
    {
      "anonymous": false,
      "inputs": [
        {
          "indexed": false,
          "internalType": "uint256",
          "name": "id",
          "type": "uint256"
        },
        {
          "indexed": false,
          "internalType": "string",
          "name": "title",
          "type": "string"
        },
        {
          "indexed": false,
          "internalType": "string",
          "name": "description",
          "type": "string"
        },
        {
          "indexed": false,
          "internalType": "bool",
          "name": "done",
          "type": "bool"
        },
        {
          "indexed": false,
          "internalType": "uint256",
          "name": "created_at",
          "type": "uint256"
        }
      ],
      "name": "TaskCreated",
      "type": "event"
    },
    {
      "inputs": [
        {
          "internalType": "uint256",
          "name": "",
          "type": "uint256"
        }
      ],
      "name": "task",
      "outputs": [
        {
          "internalType": "uint256",
          "name": "id",
          "type": "uint256"
        },
        {
          "internalType": "string",
          "name": "title",
          "type": "string"
        },
        {
          "internalType": "string",
          "name": "description",
          "type": "string"
        },
        {
          "internalType": "bool",
          "name": "done",
          "type": "bool"
        },
        {
          "internalType": "uint256",
          "name": "created_at",
          "type": "uint256"
        }
      ],
      "stateMutability": "view",
      "type": "function",
      "constant": true
    },
    {
      "inputs": [],
      "name": "taskCount",
      "outputs": [
        {
          "internalType": "uint256",
          "name": "",
          "type": "uint256"
        }
      ],
      "stateMutability": "view",
      "type": "function",
      "constant": true
    },
    {
      "inputs": [
        {
          "internalType": "string",
          "name": "_title",
          "type": "string"
        },
        {
          "internalType": "string",
          "name": "_description",
          "type": "string"
        }
      ],
      "name": "createTask",
      "outputs": [],
      "stateMutability": "nonpayable",
      "type": "function"
    },
    {
      "inputs": [
        {
          "internalType": "uint256",
          "name": "_id",
          "type": "uint256"
        }
      ],
      "name": "changeDone",
      "outputs": [],
      "stateMutability": "nonpayable",
      "type": "function"
    }
  ],
  "bytecode": "0x6080604052600080553480156200001557600080fd5b50620000926040518060400160405280600f81526020017f6d69207072696d657220746172656100000000000000000000000000000000008152506040518060400160405280601181526020017f746172656120706f72206465666563746f0000000000000000000000000000008152506200009860201b60201c565b62000487565b6040518060a00160405280600054815260200183815260200182815260200160001515815260200142815250600160008054815260200190815260200160002060008201518160000155602082015181600101908051906020019062000100929190620001ae565b5060408201518160020190805190602001906200011f929190620001ae565b5060608201518160030160006101000a81548160ff02191690831515021790555060808201518160040155905050600080815480929190620001619062000297565b91905055507f6549102bed7d1bb5ec529ee14e2ca60ffc1f47f66d4cc6ca713220613cc64c256000548383600042604051620001a2959493929190620003b7565b60405180910390a15050565b828054620001bc9062000451565b90600052602060002090601f016020900481019282620001e057600085556200022c565b82601f10620001fb57805160ff19168380011785556200022c565b828001600101855582156200022c579182015b828111156200022b5782518255916020019190600101906200020e565b5b5090506200023b91906200023f565b5090565b5b808211156200025a57600081600090555060010162000240565b5090565b7f4e487b7100000000000000000000000000000000000000000000000000000000600052601160045260246000fd5b6000819050919050565b6000620002a4826200028d565b91507fffffffffffffffffffffffffffffffffffffffffffffffffffffffffffffffff821415620002da57620002d96200025e565b5b600182019050919050565b620002f0816200028d565b82525050565b600081519050919050565b600082825260208201905092915050565b60005b838110156200033257808201518184015260208101905062000315565b8381111562000342576000848401525b50505050565b6000601f19601f8301169050919050565b60006200036682620002f6565b62000372818562000301565b93506200038481856020860162000312565b6200038f8162000348565b840191505092915050565b60008115159050919050565b620003b1816200039a565b82525050565b600060a082019050620003ce6000830188620002e5565b8181036020830152620003e2818762000359565b90508181036040830152620003f8818662000359565b9050620004096060830185620003a6565b620004186080830184620002e5565b9695505050505050565b7f4e487b7100000000000000000000000000000000000000000000000000000000600052602260045260246000fd5b600060028204905060018216806200046a57607f821691505b6020821081141562000481576200048062000422565b5b50919050565b610a6a80620004976000396000f3fe608060405234801561001057600080fd5b506004361061004c5760003560e01c806317751a21146100515780631e71c25f14610085578063292a4585146100a1578063b6cb58a5146100bd575b600080fd5b61006b60048036038101906100669190610642565b6100db565b60405161007c959493929190610732565b60405180910390f35b61009f600480360381019061009a9190610642565b61022e565b005b6100bb60048036038101906100b691906108c8565b610441565b005b6100c561054f565b6040516100d29190610940565b60405180910390f35b60016020528060005260406000206000915090508060000154908060010180546101049061098a565b80601f01602080910402602001604051908101604052809291908181526020018280546101309061098a565b801561017d5780601f106101525761010080835404028352916020019161017d565b820191906000526020600020905b81548152906001019060200180831161016057829003601f168201915b5050505050908060020180546101929061098a565b80601f01602080910402602001604051908101604052809291908181526020018280546101be9061098a565b801561020b5780601f106101e05761010080835404028352916020019161020b565b820191906000526020600020905b8154815290600101906020018083116101ee57829003601f168201915b5050505050908060030160009054906101000a900460ff16908060040154905085565b6000600160008381526020019081526020016000206040518060a0016040529081600082015481526020016001820180546102689061098a565b80601f01602080910402602001604051908101604052809291908181526020018280546102949061098a565b80156102e15780601f106102b6576101008083540402835291602001916102e1565b820191906000526020600020905b8154815290600101906020018083116102c457829003601f168201915b505050505081526020016002820180546102fa9061098a565b80601f01602080910402602001604051908101604052809291908181526020018280546103269061098a565b80156103735780601f1061034857610100808354040283529160200191610373565b820191906000526020600020905b81548152906001019060200180831161035657829003601f168201915b505050505081526020016003820160009054906101000a900460ff16151515158152602001600482015481525050905080606001511581606001901515908115158152505080600160008481526020019081526020016000206000820151816000015560208201518160010190805190602001906103f2929190610555565b50604082015181600201908051906020019061040f929190610555565b5060608201518160030160006101000a81548160ff021916908315150217905550608082015181600401559050505050565b6040518060a0016040528060005481526020018381526020018281526020016000151581526020014281525060016000805481526020019081526020016000206000820151816000015560208201518160010190805190602001906104a7929190610555565b5060408201518160020190805190602001906104c4929190610555565b5060608201518160030160006101000a81548160ff02191690831515021790555060808201518160040155905050600080815480929190610504906109eb565b91905055507f6549102bed7d1bb5ec529ee14e2ca60ffc1f47f66d4cc6ca713220613cc64c256000548383600042604051610543959493929190610732565b60405180910390a15050565b60005481565b8280546105619061098a565b90600052602060002090601f01602090048101928261058357600085556105ca565b82601f1061059c57805160ff19168380011785556105ca565b828001600101855582156105ca579182015b828111156105c95782518255916020019190600101906105ae565b5b5090506105d791906105db565b5090565b5b808211156105f45760008160009055506001016105dc565b5090565b6000604051905090565b600080fd5b600080fd5b6000819050919050565b61061f8161060c565b811461062a57600080fd5b50565b60008135905061063c81610616565b92915050565b60006020828403121561065857610657610602565b5b60006106668482850161062d565b91505092915050565b6106788161060c565b82525050565b600081519050919050565b600082825260208201905092915050565b60005b838110156106b857808201518184015260208101905061069d565b838111156106c7576000848401525b50505050565b6000601f19601f8301169050919050565b60006106e98261067e565b6106f38185610689565b935061070381856020860161069a565b61070c816106cd565b840191505092915050565b60008115159050919050565b61072c81610717565b82525050565b600060a082019050610747600083018861066f565b818103602083015261075981876106de565b9050818103604083015261076d81866106de565b905061077c6060830185610723565b610789608083018461066f565b9695505050505050565b600080fd5b600080fd5b7f4e487b7100000000000000000000000000000000000000000000000000000000600052604160045260246000fd5b6107d5826106cd565b810181811067ffffffffffffffff821117156107f4576107f361079d565b5b80604052505050565b60006108076105f8565b905061081382826107cc565b919050565b600067ffffffffffffffff8211156108335761083261079d565b5b61083c826106cd565b9050602081019050919050565b82818337600083830152505050565b600061086b61086684610818565b6107fd565b90508281526020810184848401111561088757610886610798565b5b610892848285610849565b509392505050565b600082601f8301126108af576108ae610793565b5b81356108bf848260208601610858565b91505092915050565b600080604083850312156108df576108de610602565b5b600083013567ffffffffffffffff8111156108fd576108fc610607565b5b6109098582860161089a565b925050602083013567ffffffffffffffff81111561092a57610929610607565b5b6109368582860161089a565b9150509250929050565b6000602082019050610955600083018461066f565b92915050565b7f4e487b7100000000000000000000000000000000000000000000000000000000600052602260045260246000fd5b600060028204905060018216806109a257607f821691505b602082108114156109b6576109b561095b565b5b50919050565b7f4e487b7100000000000000000000000000000000000000000000000000000000600052601160045260246000fd5b60006109f68261060c565b91507fffffffffffffffffffffffffffffffffffffffffffffffffffffffffffffffff821415610a2957610a286109bc565b5b60018201905091905056fea26469706673582212207baaac22620163d1c9c5cb87592dd5060b13c8f9f30befb515056fbf5683ece864736f6c63430008090033",
  "immutableReferences": {},
  "source": "// SPDX-License-Identifier: MIT\r\npragma solidity >=0.4.22 < 0.9.0;\r\n\r\n/**\r\n contract es la definicion principal\r\n */\r\ncontract TasksContract{\r\n\r\n    uint256 public taskCount = 0;\r\n    //averiguar bien por mapping\r\n    mapping (uint256 => Task) public task;\r\n\r\n    //  \r\n    struct Task {\r\n        uint256 id;\r\n        string title;\r\n        string description;\r\n        bool done;\r\n        uint256 created_at;\r\n    }\r\n\r\n    constructor (){\r\n        createTask('mi primer tarea', 'tarea por defecto');\r\n    }\r\n\r\n    event TaskCreated(\r\n        uint256 id,\r\n        string title,\r\n        string description,\r\n        bool done,\r\n        uint256 created_at\r\n    );\r\n\r\n    function createTask(string memory _title, string memory _description) public\r\n    {\r\n        task[taskCount] = Task(taskCount, _title, _description, false, block.timestamp);\r\n        taskCount++;\r\n        //esto sera guardado en el log\r\n        emit TaskCreated(taskCount, _title, _description, false, block.timestamp);\r\n    }\r\n\r\n    function changeDone(uint _id) public\r\n    {\r\n        Task memory _task = task[_id];\r\n        _task.done = !_task.done;\r\n        task[_id] = _task;\r\n    }\r\n}",
  "sourcePath": "C:\\Users\\57311\\Documents\\BokuNoDev\\BlockChain\\MyFirstDapp\\contracts\\TasksContract.sol",
  "compiler": {
    "name": "solc",
    "version": "0.8.9+commit.e5eed63a.Emscripten.clang"
  },
  "schemaVersion": "3.4.3",
  "updatedAt": "2021-11-16T03:38:53.741Z",
  "networkType": "ethereum",
  "devdoc": {
    "kind": "dev",
    "methods": {},
    "version": 1
  },
  "userdoc": {
    "kind": "user",
    "methods": {},
    "notice": "contract es la definicion principal",
    "version": 1
  }
}