{
  "contractName": "VotosContract",
  "abi": [
    {
      "inputs": [],
      "stateMutability": "nonpayable",
      "type": "constructor"
    },
    {
      "anonymous": false,
      "inputs": [
        {
          "indexed": false,
          "internalType": "uint256",
          "name": "id",
          "type": "uint256"
        },
        {
          "indexed": false,
          "internalType": "bool",
          "name": "voto",
          "type": "bool"
        },
        {
          "indexed": false,
          "internalType": "uint256",
          "name": "cuenta_id",
          "type": "uint256"
        },
        {
          "indexed": false,
          "internalType": "uint256",
          "name": "created_at",
          "type": "uint256"
        }
      ],
      "name": "votoCreated",
      "type": "event"
    },
    {
      "inputs": [],
      "name": "counter",
      "outputs": [
        {
          "internalType": "uint256",
          "name": "",
          "type": "uint256"
        }
      ],
      "stateMutability": "view",
      "type": "function",
      "constant": true
    },
    {
      "inputs": [
        {
          "internalType": "uint256",
          "name": "",
          "type": "uint256"
        }
      ],
      "name": "votos",
      "outputs": [
        {
          "internalType": "uint256",
          "name": "id",
          "type": "uint256"
        },
        {
          "internalType": "bool",
          "name": "voto",
          "type": "bool"
        },
        {
          "internalType": "uint256",
          "name": "cuenta_id",
          "type": "uint256"
        },
        {
          "internalType": "uint256",
          "name": "created_at",
          "type": "uint256"
        }
      ],
      "stateMutability": "view",
      "type": "function",
      "constant": true
    },
    {
      "inputs": [],
      "name": "votos_false",
      "outputs": [
        {
          "internalType": "int256",
          "name": "",
          "type": "int256"
        }
      ],
      "stateMutability": "view",
      "type": "function",
      "constant": true
    },
    {
      "inputs": [],
      "name": "votos_true",
      "outputs": [
        {
          "internalType": "int256",
          "name": "",
          "type": "int256"
        }
      ],
      "stateMutability": "view",
      "type": "function",
      "constant": true
    },
    {
      "inputs": [],
      "name": "initCounter",
      "outputs": [],
      "stateMutability": "nonpayable",
      "type": "function"
    },
    {
      "inputs": [
        {
          "internalType": "uint256",
          "name": "_cuenta_id",
          "type": "uint256"
        },
        {
          "internalType": "bool",
          "name": "_voto",
          "type": "bool"
        }
      ],
      "name": "votar",
      "outputs": [],
      "stateMutability": "nonpayable",
      "type": "function"
    }
  ],
  "bytecode": "0x60806040526000805534801561001457600080fd5b5061002361002860201b60201c565b61003a565b60006001819055506000600281905550565b610514806100496000396000f3fe608060405234801561001057600080fd5b50600436106100625760003560e01c806328962d4e146100675780632f949a701461008357806335f1a178146100a157806361bc221a146100bf578063b2731f0e146100dd578063f2741c3814610110575b600080fd5b610081600480360381019061007c91906102fe565b61011a565b005b61008b61022a565b6040516100989190610357565b60405180910390f35b6100a9610230565b6040516100b69190610357565b60405180910390f35b6100c7610236565b6040516100d49190610381565b60405180910390f35b6100f760048036038101906100f2919061039c565b61023c565b60405161010794939291906103d8565b60405180910390f35b610118610279565b005b801561013d57600160008154809291906101339061044c565b9190505550610156565b600260008154809291906101509061044c565b91905055505b6040518060800160405280600054815260200182151581526020018381526020014281525060036000805481526020019081526020016000206000820151816000015560208201518160010160006101000a81548160ff02191690831515021790555060408201518160020155606082015181600301559050506000808154809291906101e290610495565b91905055507fd9abb416803239128a071f36396dc53b326c783273bba3c55eae16e995e5f06d60005482844260405161021e94939291906103d8565b60405180910390a15050565b60025481565b60015481565b60005481565b60036020528060005260406000206000915090508060000154908060010160009054906101000a900460ff16908060020154908060030154905084565b60006001819055506000600281905550565b600080fd5b6000819050919050565b6102a381610290565b81146102ae57600080fd5b50565b6000813590506102c08161029a565b92915050565b60008115159050919050565b6102db816102c6565b81146102e657600080fd5b50565b6000813590506102f8816102d2565b92915050565b600080604083850312156103155761031461028b565b5b6000610323858286016102b1565b9250506020610334858286016102e9565b9150509250929050565b6000819050919050565b6103518161033e565b82525050565b600060208201905061036c6000830184610348565b92915050565b61037b81610290565b82525050565b60006020820190506103966000830184610372565b92915050565b6000602082840312156103b2576103b161028b565b5b60006103c0848285016102b1565b91505092915050565b6103d2816102c6565b82525050565b60006080820190506103ed6000830187610372565b6103fa60208301866103c9565b6104076040830185610372565b6104146060830184610372565b95945050505050565b7f4e487b7100000000000000000000000000000000000000000000000000000000600052601160045260246000fd5b60006104578261033e565b91507f7fffffffffffffffffffffffffffffffffffffffffffffffffffffffffffffff82141561048a5761048961041d565b5b600182019050919050565b60006104a082610290565b91507fffffffffffffffffffffffffffffffffffffffffffffffffffffffffffffffff8214156104d3576104d261041d565b5b60018201905091905056fea2646970667358221220846f59747f300386796d0e58326c840651ed27461856a0be48d3859a7eb0ca8264736f6c63430008090033",
  "immutableReferences": {},
  "source": "// SPDX-License-Identifier: MIT\r\npragma solidity >=0.4.22 < 0.9.0;\r\n\r\ncontract VotosContract {\r\n\r\n    uint public counter = 0;\r\n    int public votos_true;\r\n    int public votos_false;\r\n    //averiguar bien por mapping\r\n    mapping (uint256 => Voto) public votos;\r\n    \r\n    event votoCreated(uint id, bool voto, uint cuenta_id, uint created_at);\r\n\r\n    struct Voto{\r\n        uint id;\r\n        bool voto;\r\n        uint cuenta_id;\r\n        uint created_at;\r\n    }\r\n\r\n    constructor(){\r\n        initCounter();\r\n    }\r\n    \r\n    function initCounter() public\r\n    {\r\n        votos_true = 0;\r\n        votos_false = 0;\r\n    }\r\n\r\n    function votar(uint _cuenta_id, bool _voto) public\r\n    {\r\n        if(_voto){\r\n            votos_true++;\r\n        }else{\r\n            votos_false++;\r\n        }\r\n        votos[counter] = Voto(counter, _voto, _cuenta_id,  block.timestamp);\r\n        counter++;\r\n        emit votoCreated(counter, _voto, _cuenta_id,  block.timestamp);\r\n    }\r\n    \r\n}",
  "sourcePath": "C:\\Users\\57311\\Documents\\BokuNoDev\\BlockChain\\MyFirstDapp\\contracts\\VotosContract.sol",
  "compiler": {
    "name": "solc",
    "version": "0.8.9+commit.e5eed63a.Emscripten.clang"
  },
  "schemaVersion": "3.4.3",
  "updatedAt": "2021-11-16T03:38:54.841Z",
  "networkType": "ethereum",
  "devdoc": {
    "kind": "dev",
    "methods": {},
    "version": 1
  },
  "userdoc": {
    "kind": "user",
    "methods": {},
    "version": 1
  }
}